{
  "txid": "aa1d8e7318894ffc13efc38be394d70a8f4777311f31533cf50d75a3d73eb976",
  "hash": "aa1d8e7318894ffc13efc38be394d70a8f4777311f31533cf50d75a3d73eb976",
  "version": 2,
  "size": 444,
  "vsize": 444,
  "locktime": 846001,
  "vin": [
    {
      "txid": "1828342d231e02d459bffed68181c362adad57ee299b4a1fe4b6c0ccebc44235",
      "vout": 0,
      "scriptSig": {
        "asm": "3044022059dc58d711b623f2fcf8f489489077514e94ab079cea1a7e7a25b00e5578e2c402203a0f16a30350e7d21109ab9d3ee0896cc52645bc4769241e4bfe4f41d12138c5[ALL] 02947aa5268832550b735383911b02f634195d9858372a9dbc436225175a8341f0",
        "hex": "473044022059dc58d711b623f2fcf8f489489077514e94ab079cea1a7e7a25b00e5578e2c402203a0f16a30350e7d21109ab9d3ee0896cc52645bc4769241e4bfe4f41d12138c5012102947aa5268832550b735383911b02f634195d9858372a9dbc436225175a8341f0"
      },
      "sequence": 4294967294,
      "value": 6.84117122,
      "valueSat": 684117122,
      "address": "mkcBSdwHdRjNDd39KbxcSYUt8yzdCcJUXX"
    },
    {
      "txid": "9c2b5517fc4c3e44d9349110b3c352b92e2c46123c851d8242e029724935d25c",
      "vout": 2,
      "scriptSig": {
        "asm": "304402205e30501c095c98f25af79fce0b89a2a5be5c9acad2571c559efbfbbc41b236b902206085baee4268d4cb88fccecdfbefe9444264fabcc158caa3ae1ac1a7b0056d30[ALL] 0215e32aaf12c9bbaa5462ea0bde5a1227dd520080a6ec4b943e63adfcb15b1e5c",
        "hex": "47304402205e30501c095c98f25af79fce0b89a2a5be5c9acad2571c559efbfbbc41b236b902206085baee4268d4cb88fccecdfbefe9444264fabcc158caa3ae1ac1a7b0056d3001210215e32aaf12c9bbaa5462ea0bde5a1227dd520080a6ec4b943e63adfcb15b1e5c"
      },
      "sequence": 4294967294,
      "value": 0.0,
      "valueSat": 0
    }
  ],
  "vout": [
    {
      "value": 6.83659972,
      "n": 0,
      "scriptPubKey": {
        "asm": "OP_DUP OP_HASH160 6e77949ccace50fb5f283bc567dc5a7c2e702d26 OP_EQUALVERIFY OP_CHECKSIG",
        "hex": "76a9146e77949ccace50fb5f283bc567dc5a7c2e702d2688ac",
        "reqSigs": 1,
        "type": "pubkeyhash",
        "addresses": ["mqb3skmMKmfWbqBtyPawMwNotPyk36rwSj"]
      },
      "valueSat": 683659972
    },
    {
      "value": 0.0,
      "n": 1,
      "scriptPubKey": {
        "asm": "OP_DUP OP_HASH160 64ed374771d12abb7ad41eb15d65ed4b865c08bb OP_EQUALVERIFY OP_CHECKSIG OP_RVN_ASSET 1072766e7403514b4e005621830000000075",
        "hex": "76a91464ed374771d12abb7ad41eb15d65ed4b865c08bb88acc01072766e7403514b4e005621830000000075",
        "reqSigs": 1,
        "type": "transfer_asset",
        "asset": {
          "name": "QKN",
          "amount": 22.0
        },
        "addresses": ["mpic3HingFP717kvge7bFa71kVTiZfoSdN"]
      },
      "valueSat": 0
    },
    {
      "value": 0.0,
      "n": 2,
      "scriptPubKey": {
        "asm": "OP_DUP OP_HASH160 6e77949ccace50fb5f283bc567dc5a7c2e702d26 OP_EQUALVERIFY OP_CHECKSIG OP_RVN_ASSET 1072766e7403514b4e002394f80e00000075",
        "hex": "76a9146e77949ccace50fb5f283bc567dc5a7c2e702d2688acc01072766e7403514b4e002394f80e00000075",
        "reqSigs": 1,
        "type": "transfer_asset",
        "asset": {
          "name": "QKN",
          "amount": 643.0
        },
        "addresses": ["mqb3skmMKmfWbqBtyPawMwNotPyk36rwSj"]
      },
      "valueSat": 0
    }
  ],
  "hex": "02000000023542c4ebccc0b6e41f4a9b29ee57adad62c38181d6febf59d4021e232d342818000000006a473044022059dc58d711b623f2fcf8f489489077514e94ab079cea1a7e7a25b00e5578e2c402203a0f16a30350e7d21109ab9d3ee0896cc52645bc4769241e4bfe4f41d12138c5012102947aa5268832550b735383911b02f634195d9858372a9dbc436225175a8341f0feffffff5cd235497229e042821d853c12462c2eb952c3b3109134d9443e4cfc17552b9c020000006a47304402205e30501c095c98f25af79fce0b89a2a5be5c9acad2571c559efbfbbc41b236b902206085baee4268d4cb88fccecdfbefe9444264fabcc158caa3ae1ac1a7b0056d3001210215e32aaf12c9bbaa5462ea0bde5a1227dd520080a6ec4b943e63adfcb15b1e5cfeffffff03c4d2bf28000000001976a9146e77949ccace50fb5f283bc567dc5a7c2e702d2688ac00000000000000002c76a91464ed374771d12abb7ad41eb15d65ed4b865c08bb88acc01072766e7403514b4e00562183000000007500000000000000002c76a9146e77949ccace50fb5f283bc567dc5a7c2e702d2688acc01072766e7403514b4e002394f80e00000075b1e80c00"
}
