export default [
    {
        "txid": "9d20cfa12f7fd76ff8812a35da659e49844f199b60a2ddcc47c20084e7a31fe0",
        "hash": "9d20cfa12f7fd76ff8812a35da659e49844f199b60a2ddcc47c20084e7a31fe0",
        "version": 2,
        "size": 492,
        "vsize": 492,
        "locktime": 0,
        "vin": [
            {
                "txid": "14e4511c873ca336fc613dccf43042c7958658fbeb6bd4c921ceb565389763d9",
                "vout": 2,
                "scriptSig": {
                    "asm": "304402202f32df9bc98ee46c3eb241be99bd2226bb28bf249002fce775cb499646ee4516022016e8a2b525b3f0aa96338084181dd93ef328f95a85c88aee0d2ecf1e4389e17f[ALL] 035036291c49b3555ba45fae45dec80bcb160438cd99c97d7761522d8d807541e3",
                    "hex": "47304402202f32df9bc98ee46c3eb241be99bd2226bb28bf249002fce775cb499646ee4516022016e8a2b525b3f0aa96338084181dd93ef328f95a85c88aee0d2ecf1e4389e17f0121035036291c49b3555ba45fae45dec80bcb160438cd99c97d7761522d8d807541e3"
                },
                "sequence": 4294967295,
                "value": 54.87,
                "valueSat": 5487000000,
                "address": "mq33NLStX1EWv5vvDDj18jhH9U2JBVxGBL"
            },
            {
                "txid": "9728df1f8a95e99aa805c91312ef006ec8af93e21a074cc9f0b4f09bb92f175f",
                "vout": 0,
                "scriptSig": {
                    "asm": "3044022076322990d07a3d2fbab559d50b632454448a22e1418cf606097b7b3b8ab4a5db0220178b94c401f19851a82b2770e62248b11e23f81aab40f650d2026a42c0d5da9e[ALL] 03cdc56a296feabf94de889461849eafb51e16c70632dcb2e41e19e05889cac97e",
                    "hex": "473044022076322990d07a3d2fbab559d50b632454448a22e1418cf606097b7b3b8ab4a5db0220178b94c401f19851a82b2770e62248b11e23f81aab40f650d2026a42c0d5da9e012103cdc56a296feabf94de889461849eafb51e16c70632dcb2e41e19e05889cac97e"
                },
                "sequence": 4294967295,
                "value": 0,
                "valueSat": 0
            }
        ],
        "vout": [
            {
                "value": 0,
                "n": 0,
                "scriptPubKey": {
                    "asm": "OP_DUP OP_HASH160 e3d5a4140c036d711450e7bbed50752fbba4d242 OP_EQUALVERIFY OP_CHECKSIG OP_RVN_ASSET 2872766e741b524542454c4c494f55532f35305f50455243454e545f593230333000e1f5050000000075",
                    "hex": "76a914e3d5a4140c036d711450e7bbed50752fbba4d24288acc02872766e741b524542454c4c494f55532f35305f50455243454e545f593230333000e1f5050000000075",
                    "reqSigs": 1,
                    "type": "transfer_asset",
                    "asset": {
                        "name": "REBELLIOUS/50_PERCENT_Y2030",
                        "amount": 1
                    },
                    "addresses": [
                        "n2Hdcdb5pLNrrdm5ABZSvwkqagGicLohom"
                    ]
                },
                "valueSat": 0
            },
            {
                "value": 0,
                "n": 1,
                "scriptPubKey": {
                    "asm": "OP_DUP OP_HASH160 a1c5a7e5e1b3b2b54702e950e54e03dd6850ee3c OP_EQUALVERIFY OP_CHECKSIG OP_RVN_ASSET 2872766e741b524542454c4c494f55532f35305f50455243454e545f593230333000e9a4350000000075",
                    "hex": "76a914a1c5a7e5e1b3b2b54702e950e54e03dd6850ee3c88acc02872766e741b524542454c4c494f55532f35305f50455243454e545f593230333000e9a4350000000075",
                    "reqSigs": 1,
                    "type": "transfer_asset",
                    "asset": {
                        "name": "REBELLIOUS/50_PERCENT_Y2030",
                        "amount": 9
                    },
                    "addresses": [
                        "mvGKsJpW4zA4nGt1SjNqTEmVZbKSg7QFDE"
                    ]
                },
                "valueSat": 0
            },
            {
                "value": 54.77,
                "n": 2,
                "scriptPubKey": {
                    "asm": "OP_DUP OP_HASH160 6869d8a8def9df2e82db91e21f5e535df59fb0e1 OP_EQUALVERIFY OP_CHECKSIG",
                    "hex": "76a9146869d8a8def9df2e82db91e21f5e535df59fb0e188ac",
                    "reqSigs": 1,
                    "type": "pubkeyhash",
                    "addresses": [
                        "mq33NLStX1EWv5vvDDj18jhH9U2JBVxGBL"
                    ]
                },
                "valueSat": 5477000000
            }
        ],
        "hex": "0200000002d963973865b5ce21c9d46bebfb588695c74230f4cc3d61fc36a33c871c51e414020000006a47304402202f32df9bc98ee46c3eb241be99bd2226bb28bf249002fce775cb499646ee4516022016e8a2b525b3f0aa96338084181dd93ef328f95a85c88aee0d2ecf1e4389e17f0121035036291c49b3555ba45fae45dec80bcb160438cd99c97d7761522d8d807541e3ffffffff5f172fb99bf0b4f0c94c071ae293afc86e00ef1213c905a89ae9958a1fdf2897000000006a473044022076322990d07a3d2fbab559d50b632454448a22e1418cf606097b7b3b8ab4a5db0220178b94c401f19851a82b2770e62248b11e23f81aab40f650d2026a42c0d5da9e012103cdc56a296feabf94de889461849eafb51e16c70632dcb2e41e19e05889cac97effffffff0300000000000000004476a914e3d5a4140c036d711450e7bbed50752fbba4d24288acc02872766e741b524542454c4c494f55532f35305f50455243454e545f593230333000e1f505000000007500000000000000004476a914a1c5a7e5e1b3b2b54702e950e54e03dd6850ee3c88acc02872766e741b524542454c4c494f55532f35305f50455243454e545f593230333000e9a435000000007540637446010000001976a9146869d8a8def9df2e82db91e21f5e535df59fb0e188ac00000000"
    }
]