[
    {
        "txid": "c2df98691797ad1e2db69f2ed42bee3c9b5aa27cb62f85bb516e084013ffe83b",
        "hash": "c2df98691797ad1e2db69f2ed42bee3c9b5aa27cb62f85bb516e084013ffe83b",
        "version": 2,
        "size": 449,
        "vsize": 449,
        "locktime": 0,
        "vin": [
            {
                "txid": "7d9ad196c073fc96b48760370d75097b0b402efb69e943511467064ca83d637e",
                "vout": 0,
                "scriptSig": {
                    "asm": "3045022100d557b67b1dfdb3bac03795230d7f63139d48a3abd2e3213753a6585768c6132902200be3284aed59e3ccb553bda8da1285ed25935f861e129905b649ef8868c8b673[ALL] 025bf05dd4ee766a28bf4a0e6b4d97a74a5ec1be3e86cf3bc60faa6e32c308d0c0",
                    "hex": "483045022100d557b67b1dfdb3bac03795230d7f63139d48a3abd2e3213753a6585768c6132902200be3284aed59e3ccb553bda8da1285ed25935f861e129905b649ef8868c8b6730121025bf05dd4ee766a28bf4a0e6b4d97a74a5ec1be3e86cf3bc60faa6e32c308d0c0"
                },
                "sequence": 4294967295,
                "value": 200.00000000,
                "valueSat": 20000000000,
                "address": "mgZ8imdcfGFvkMX6j8a6qgMEQ7DS2jSqDJ"
            },
            {
                "txid": "3367817fa72b46079dfec07c628a4b456c174f2b51bf0a26f6f541fd8cffd709",
                "vout": 1,
                "scriptSig": {
                    "asm": "304402200af9c9848216f00272d47ee9056d23be8abc90d7b8cc0e13469918c490990b1d0220763cb77e1537f929636c739c593318de7a81ee389ba5318d0a8d19ae7b7e2f79[ALL] 03a503d1be44b1fa19bce2fc2cf7bc2ca96f9b62f08d6ee85b8f32a375455365e7",
                    "hex": "47304402200af9c9848216f00272d47ee9056d23be8abc90d7b8cc0e13469918c490990b1d0220763cb77e1537f929636c739c593318de7a81ee389ba5318d0a8d19ae7b7e2f79012103a503d1be44b1fa19bce2fc2cf7bc2ca96f9b62f08d6ee85b8f32a375455365e7"
                },
                "sequence": 4294967295,
                "value": 0.00000000,
                "valueSat": 0,
                "address": "mtFGaZCB4JermbyziCwknP4eNgD4QNAGJv"
            }
        ],
        "vout": [
            {
                "value": 0.00000000,
                "n": 0,
                "scriptPubKey": {
                    "asm": "OP_DUP OP_HASH160 77627275763d6fdfc8051c49056f1159307d4632 OP_EQUALVERIFY OP_CHECKSIG OP_RVN_ASSET 1272766e7405424152525900c2eb0b0000000075",
                    "hex": "76a91477627275763d6fdfc8051c49056f1159307d463288acc01272766e7405424152525900c2eb0b0000000075",
                    "reqSigs": 1,
                    "type": "transfer_asset",
                    "asset": {
                        "name": "BARRY",
                        "amount": 2.00000000
                    },
                    "addresses": [
                        "mrQCe78rtNV1EtCDP49RAEwovbK4rgt93a"
                    ]
                },
                "valueSat": 0
            },
            {
                "value": 0.00000000,
                "n": 1,
                "scriptPubKey": {
                    "asm": "OP_DUP OP_HASH160 8ba23e319d0f204caae6270681448b0cd4247134 OP_EQUALVERIFY OP_CHECKSIG OP_RVN_ASSET 1272766e740542415252590027b9290000000075",
                    "hex": "76a9148ba23e319d0f204caae6270681448b0cd424713488acc01272766e740542415252590027b9290000000075",
                    "reqSigs": 1,
                    "type": "transfer_asset",
                    "asset": {
                        "name": "BARRY",
                        "amount": 7.00000000
                    },
                    "addresses": [
                        "mtFGaZCB4JermbyziCwknP4eNgD4QNAGJv"
                    ]
                },
                "valueSat": 0
            },
            {
                "value": 199.99000000,
                "n": 2,
                "scriptPubKey": {
                    "asm": "OP_DUP OP_HASH160 dd3ed8805f58946fd9c86ad42d966f34bd54b20d OP_EQUALVERIFY OP_CHECKSIG",
                    "hex": "76a914dd3ed8805f58946fd9c86ad42d966f34bd54b20d88ac",
                    "reqSigs": 1,
                    "type": "pubkeyhash",
                    "addresses": [
                        "n1gnv3ZSeHGtqPtcmHePFw2iZceiGFjPmY"
                    ]
                },
                "valueSat": 19999000000
            }
        ],
        "hex": "02000000027e633da84c0667145143e969fb2e400b7b09750d376087b496fc73c096d19a7d000000006b483045022100d557b67b1dfdb3bac03795230d7f63139d48a3abd2e3213753a6585768c6132902200be3284aed59e3ccb553bda8da1285ed25935f861e129905b649ef8868c8b6730121025bf05dd4ee766a28bf4a0e6b4d97a74a5ec1be3e86cf3bc60faa6e32c308d0c0ffffffff09d7ff8cfd41f5f6260abf512b4f176c454b8a627cc0fe9d07462ba77f816733010000006a47304402200af9c9848216f00272d47ee9056d23be8abc90d7b8cc0e13469918c490990b1d0220763cb77e1537f929636c739c593318de7a81ee389ba5318d0a8d19ae7b7e2f79012103a503d1be44b1fa19bce2fc2cf7bc2ca96f9b62f08d6ee85b8f32a375455365e7ffffffff0300000000000000002e76a91477627275763d6fdfc8051c49056f1159307d463288acc01272766e7405424152525900c2eb0b000000007500000000000000002e76a9148ba23e319d0f204caae6270681448b0cd424713488acc01272766e740542415252590027b9290000000075c08508a8040000001976a914dd3ed8805f58946fd9c86ad42d966f34bd54b20d88ac00000000",
        "blockhash": "0000001c50a2611d231c217f0aeec4d184af4ad2adc45349b434e01750a7d4b1",
        "height": 885562,
        "confirmations": 62,
        "time": 1673184245,
        "blocktime": 1673184245
    }
]