[
    {
        "txid": "7de79d5869dfa5eba0f1de583f20d5fc1a11d4bd7eaedfd9695a9b247d2ce113",
        "hash": "7de79d5869dfa5eba0f1de583f20d5fc1a11d4bd7eaedfd9695a9b247d2ce113",
        "version": 2,
        "size": 226,
        "vsize": 226,
        "locktime": 885561,
        "vin": [
            {
                "txid": "66b03d2a70dbf16bd0a3c7a7acd41a996c3161de404f10b7a0494a0af329088d",
                "vout": 0,
                "scriptSig": {
                    "asm": "3045022100c2b3fd8e3af505ccd4d673ddfba7e2367372f7eef03176207f4172b818f109e3022068dcc55fd52d21e707512fb2ab226eb330c044788f05e06fe34b40498ea48085[ALL] 027aaa6f0fd6ec9ea82ecfcfad7d53274953eb56b7e9c7b61862e37726e9789e4f",
                    "hex": "483045022100c2b3fd8e3af505ccd4d673ddfba7e2367372f7eef03176207f4172b818f109e3022068dcc55fd52d21e707512fb2ab226eb330c044788f05e06fe34b40498ea480850121027aaa6f0fd6ec9ea82ecfcfad7d53274953eb56b7e9c7b61862e37726e9789e4f"
                },
                "sequence": 4294967294,
                "value": 5000.00000000,
                "valueSat": 500000000000,
                "address": "n3gVBwQsX811pzBUToPsFS3CeFdFNdviQB"
            }
        ],
        "vout": [
            {
                "value": 2.00000000,
                "n": 0,
                "scriptPubKey": {
                    "asm": "OP_DUP OP_HASH160 77627275763d6fdfc8051c49056f1159307d4632 OP_EQUALVERIFY OP_CHECKSIG",
                    "hex": "76a91477627275763d6fdfc8051c49056f1159307d463288ac",
                    "reqSigs": 1,
                    "type": "pubkeyhash",
                    "addresses": [
                        "mrQCe78rtNV1EtCDP49RAEwovbK4rgt93a"
                    ]
                },
                "valueSat": 200000000
            },
            {
                "value": 4997.99768350,
                "n": 1,
                "scriptPubKey": {
                    "asm": "OP_DUP OP_HASH160 2156025e43b93a67d807c07e9f013ed3d64bf467 OP_EQUALVERIFY OP_CHECKSIG",
                    "hex": "76a9142156025e43b93a67d807c07e9f013ed3d64bf46788ac",
                    "reqSigs": 1,
                    "type": "pubkeyhash",
                    "addresses": [
                        "miZDdQr2R21ET2aZB8t8T8wBzSwvR59C8S"
                    ]
                },
                "valueSat": 499799768350
            }
        ],
        "hex": "02000000018d0829f30a4a49a0b7104f40de61316c991ad4aca7c7a3d06bf1db702a3db066000000006b483045022100c2b3fd8e3af505ccd4d673ddfba7e2367372f7eef03176207f4172b818f109e3022068dcc55fd52d21e707512fb2ab226eb330c044788f05e06fe34b40498ea480850121027aaa6f0fd6ec9ea82ecfcfad7d53274953eb56b7e9c7b61862e37726e9789e4ffeffffff0200c2eb0b000000001976a91477627275763d6fdfc8051c49056f1159307d463288ac1e3d635e740000001976a9142156025e43b93a67d807c07e9f013ed3d64bf46788ac39830d00",
        "blockhash": "0000001c50a2611d231c217f0aeec4d184af4ad2adc45349b434e01750a7d4b1",
        "height": 885562,
        "confirmations": 61,
        "time": 1673184245,
        "blocktime": 1673184245
    }
]